{
  "abi": [
    {
      "inputs": [],
      "name": "deployer",
      "outputs": [
        {
          "internalType": "address",
          "name": "",
          "type": "address"
        }
      ],
      "stateMutability": "view",
      "type": "function"
    },
    {
      "inputs": [],
      "name": "increment",
      "outputs": [],
      "stateMutability": "nonpayable",
      "type": "function"
    },
    {
      "inputs": [],
      "name": "number",
      "outputs": [
        {
          "internalType": "uint256",
          "name": "",
          "type": "uint256"
        }
      ],
      "stateMutability": "view",
      "type": "function"
    },
    {
      "inputs": [
        {
          "internalType": "uint256",
          "name": "newNumber",
          "type": "uint256"
        }
      ],
      "name": "setNumber",
      "outputs": [],
      "stateMutability": "nonpayable",
      "type": "function"
    }
  ],
  "bytecode": {
    "object": "0x608060405234801561001057600080fd5b50610153806100206000396000f3fe608060405234801561001057600080fd5b506004361061004c5760003560e01c80633fb5c1cb146100515780638381f58a14610078578063d09de08a14610094578063d5f394881461009c575b600080fd5b61007661005f3660046100dd565b600055600180546001600160a01b03191633179055565b005b61008160005481565b6040519081526020015b60405180910390f35b6100766100c7565b6001546100af906001600160a01b031681565b6040516001600160a01b03909116815260200161008b565b6000805490806100d6836100f6565b9190505550565b6000602082840312156100ef57600080fd5b5035919050565b60006001820161011657634e487b7160e01b600052601160045260246000fd5b506001019056fea26469706673582212207ea8c9e4ff777c7d28ff8ef5a2e98916fdbfa79ebc0c466f040254f5c6dd74b064736f6c63430008110033",
    "linkReferences": {}
  },
  "methodIdentifiers": {
    "deployer()": "d5f39488",
    "increment()": "d09de08a",
    "number()": "8381f58a",
    "setNumber(uint256)": "3fb5c1cb"
  },
  "id": 14
}