{
  "abi": [
    {
      "inputs": [
        {
          "internalType": "string",
          "name": "_tokenName",
          "type": "string"
        },
        {
          "internalType": "string",
          "name": "_tokenSymbol",
          "type": "string"
        },
        {
          "internalType": "uint8",
          "name": "_decimalUnits",
          "type": "uint8"
        },
        {
          "internalType": "uint256",
          "name": "_initialSupply",
          "type": "uint256"
        },
        {
          "internalType": "uint256",
          "name": "_price",
          "type": "uint256"
        }
      ],
      "stateMutability": "nonpayable",
      "type": "constructor"
    },
    {
      "anonymous": false,
      "inputs": [
        {
          "indexed": true,
          "internalType": "address",
          "name": "_owner",
          "type": "address"
        },
        {
          "indexed": true,
          "internalType": "address",
          "name": "_spender",
          "type": "address"
        },
        {
          "indexed": false,
          "internalType": "uint256",
          "name": "_value",
          "type": "uint256"
        }
      ],
      "name": "Approval",
      "type": "event"
    },
    {
      "anonymous": false,
      "inputs": [
        {
          "indexed": true,
          "internalType": "address",
          "name": "from",
          "type": "address"
        },
        {
          "indexed": true,
          "internalType": "address",
          "name": "to",
          "type": "address"
        },
        {
          "indexed": false,
          "internalType": "uint256",
          "name": "value",
          "type": "uint256"
        }
      ],
      "name": "Transfer",
      "type": "event"
    },
    {
      "inputs": [
        {
          "internalType": "address",
          "name": "_owner",
          "type": "address"
        },
        {
          "internalType": "address",
          "name": "_spender",
          "type": "address"
        }
      ],
      "name": "allowance",
      "outputs": [
        {
          "internalType": "uint256",
          "name": "",
          "type": "uint256"
        }
      ],
      "stateMutability": "view",
      "type": "function"
    },
    {
      "inputs": [
        {
          "internalType": "address",
          "name": "_spender",
          "type": "address"
        },
        {
          "internalType": "uint256",
          "name": "_value",
          "type": "uint256"
        }
      ],
      "name": "approve",
      "outputs": [
        {
          "internalType": "bool",
          "name": "",
          "type": "bool"
        }
      ],
      "stateMutability": "nonpayable",
      "type": "function"
    },
    {
      "inputs": [
        {
          "internalType": "address",
          "name": "_owner",
          "type": "address"
        }
      ],
      "name": "balanceOf",
      "outputs": [
        {
          "internalType": "uint256",
          "name": "",
          "type": "uint256"
        }
      ],
      "stateMutability": "view",
      "type": "function"
    },
    {
      "inputs": [],
      "name": "buy",
      "outputs": [
        {
          "internalType": "bool",
          "name": "",
          "type": "bool"
        }
      ],
      "stateMutability": "payable",
      "type": "function"
    },
    {
      "inputs": [],
      "name": "decimals",
      "outputs": [
        {
          "internalType": "uint8",
          "name": "",
          "type": "uint8"
        }
      ],
      "stateMutability": "view",
      "type": "function"
    },
    {
      "inputs": [],
      "name": "getPrice",
      "outputs": [
        {
          "internalType": "uint256",
          "name": "",
          "type": "uint256"
        }
      ],
      "stateMutability": "view",
      "type": "function"
    },
    {
      "inputs": [],
      "name": "name",
      "outputs": [
        {
          "internalType": "string",
          "name": "",
          "type": "string"
        }
      ],
      "stateMutability": "view",
      "type": "function"
    },
    {
      "inputs": [],
      "name": "symbol",
      "outputs": [
        {
          "internalType": "string",
          "name": "",
          "type": "string"
        }
      ],
      "stateMutability": "view",
      "type": "function"
    },
    {
      "inputs": [],
      "name": "totalSupply",
      "outputs": [
        {
          "internalType": "uint256",
          "name": "",
          "type": "uint256"
        }
      ],
      "stateMutability": "view",
      "type": "function"
    },
    {
      "inputs": [
        {
          "internalType": "address",
          "name": "_to",
          "type": "address"
        },
        {
          "internalType": "uint256",
          "name": "_value",
          "type": "uint256"
        }
      ],
      "name": "transfer",
      "outputs": [
        {
          "internalType": "bool",
          "name": "",
          "type": "bool"
        }
      ],
      "stateMutability": "nonpayable",
      "type": "function"
    },
    {
      "inputs": [
        {
          "internalType": "address",
          "name": "_from",
          "type": "address"
        },
        {
          "internalType": "address",
          "name": "_to",
          "type": "address"
        },
        {
          "internalType": "uint256",
          "name": "_value",
          "type": "uint256"
        }
      ],
      "name": "transferFrom",
      "outputs": [
        {
          "internalType": "bool",
          "name": "",
          "type": "bool"
        }
      ],
      "stateMutability": "nonpayable",
      "type": "function"
    }
  ],
  "bytecode": {
    "object": "0x60806040523480156200001157600080fd5b5060405162000b4a38038062000b4a833981016040819052620000349162000155565b8484848460006200004685826200027a565b5060016200005584826200027a565b506002805460ff191660ff93909316929092179091556003819055336000908152600460205260409020555050600655506200034692505050565b634e487b7160e01b600052604160045260246000fd5b600082601f830112620000b857600080fd5b81516001600160401b0380821115620000d557620000d562000090565b604051601f8301601f19908116603f0116810190828211818310171562000100576200010062000090565b816040528381526020925086838588010111156200011d57600080fd5b600091505b8382101562000141578582018301518183018401529082019062000122565b600093810190920192909252949350505050565b600080600080600060a086880312156200016e57600080fd5b85516001600160401b03808211156200018657600080fd5b6200019489838a01620000a6565b96506020880151915080821115620001ab57600080fd5b50620001ba88828901620000a6565b945050604086015160ff81168114620001d257600080fd5b6060870151608090970151959894975095949392505050565b600181811c908216806200020057607f821691505b6020821081036200022157634e487b7160e01b600052602260045260246000fd5b50919050565b601f8211156200027557600081815260208120601f850160051c81016020861015620002505750805b601f850160051c820191505b8181101562000271578281556001016200025c565b5050505b505050565b81516001600160401b0381111562000296576200029662000090565b620002ae81620002a78454620001eb565b8462000227565b602080601f831160018114620002e65760008415620002cd5750858301515b600019600386901b1c1916600185901b17855562000271565b600085815260208120601f198616915b828110156200031757888601518255948401946001909101908401620002f6565b5085821015620003365787850151600019600388901b60f8161c191681555b5050505050600190811b01905550565b6107f480620003566000396000f3fe60806040526004361061009c5760003560e01c806370a082311161006457806370a082311461015d57806395d89b411461019357806398d5fdca146101a8578063a6f2ae3a146101bd578063a9059cbb146101c5578063dd62ed3e146101e557600080fd5b806306fdde03146100a1578063095ea7b3146100cc57806318160ddd146100fc57806323b872dd1461011b578063313ce5671461013b575b600080fd5b3480156100ad57600080fd5b506100b661022b565b6040516100c39190610601565b60405180910390f35b3480156100d857600080fd5b506100ec6100e736600461066b565b6102bd565b60405190151581526020016100c3565b34801561010857600080fd5b506003545b6040519081526020016100c3565b34801561012757600080fd5b506100ec610136366004610695565b61037c565b34801561014757600080fd5b5060025460405160ff90911681526020016100c3565b34801561016957600080fd5b5061010d6101783660046106d1565b6001600160a01b031660009081526004602052604090205490565b34801561019f57600080fd5b506100b66104ea565b3480156101b457600080fd5b5060065461010d565b6100ec6104f9565b3480156101d157600080fd5b506100ec6101e036600461066b565b61051f565b3480156101f157600080fd5b5061010d6102003660046106f3565b6001600160a01b03918216600090815260056020908152604080832093909416825291909152205490565b60606000805461023a90610726565b80601f016020809104026020016040519081016040528092919081815260200182805461026690610726565b80156102b35780601f10610288576101008083540402835291602001916102b3565b820191906000526020600020905b81548152906001019060200180831161029657829003601f168201915b5050505050905090565b336000908152600460205260408120548211156103165760405162461bcd60e51b81526020600482015260126024820152714e6f7420656e6f7567682062616c616e636560701b60448201526064015b60405180910390fd5b3360008181526005602090815260408083206001600160a01b03881680855290835292819020869055518581529192917f8c5be1e5ebec7d5bd14f71427d1e84f3dd0314c0f7b2291e5b200ac8c7c3b92591015b60405180910390a35060015b92915050565b6001600160a01b0383166000908152600460205260408120548211156103e45760405162461bcd60e51b815260206004820152601d60248201527f4e6f7420656e6f7567682062616c616e63652066726f6d205f66726f6d000000604482015260640161030d565b6001600160a01b038416600090815260056020908152604080832033845290915290205482111561044e5760405162461bcd60e51b81526020600482015260146024820152734e6f7420656e6f75676820616c6c6f77616e636560601b604482015260640161030d565b6001600160a01b03841660009081526004602052604081208054849290610476908490610776565b90915550506001600160a01b038316600090815260046020526040812080548492906104a3908490610789565b90915550506001600160a01b0384166000908152600560209081526040808320338452909152812080548492906104db908490610776565b90915550600195945050505050565b60606001805461023a90610726565b6000806006543461050a919061079c565b9050610516338261051f565b50600191505090565b336000908152600460205260408120548211156105735760405162461bcd60e51b81526020600482015260126024820152714e6f7420656e6f7567682062616c616e636560701b604482015260640161030d565b3360009081526004602052604081208054849290610592908490610776565b90915550506001600160a01b038316600090815260046020526040812080548492906105bf908490610789565b90915550506040518281526001600160a01b0384169033907fddf252ad1be2c89b69c2b068fc378daa952ba7f163c4a11628f55a4df523b3ef9060200161036a565b600060208083528351808285015260005b8181101561062e57858101830151858201604001528201610612565b506000604082860101526040601f19601f8301168501019250505092915050565b80356001600160a01b038116811461066657600080fd5b919050565b6000806040838503121561067e57600080fd5b6106878361064f565b946020939093013593505050565b6000806000606084860312156106aa57600080fd5b6106b38461064f565b92506106c16020850161064f565b9150604084013590509250925092565b6000602082840312156106e357600080fd5b6106ec8261064f565b9392505050565b6000806040838503121561070657600080fd5b61070f8361064f565b915061071d6020840161064f565b90509250929050565b600181811c9082168061073a57607f821691505b60208210810361075a57634e487b7160e01b600052602260045260246000fd5b50919050565b634e487b7160e01b600052601160045260246000fd5b8181038181111561037657610376610760565b8082018082111561037657610376610760565b6000826107b957634e487b7160e01b600052601260045260246000fd5b50049056fea264697066735822122073037cd1fda109b8147fc1089dc80623f2421cfbc81ee4cedd520b6d4826c85664736f6c63430008110033",
    "linkReferences": {}
  },
  "methodIdentifiers": {
    "allowance(address,address)": "dd62ed3e",
    "approve(address,uint256)": "095ea7b3",
    "balanceOf(address)": "70a08231",
    "buy()": "a6f2ae3a",
    "decimals()": "313ce567",
    "getPrice()": "98d5fdca",
    "name()": "06fdde03",
    "symbol()": "95d89b41",
    "totalSupply()": "18160ddd",
    "transfer(address,uint256)": "a9059cbb",
    "transferFrom(address,address,uint256)": "23b872dd"
  },
  "id": 15
}