{
  "abi": [
    {
      "inputs": [
        {
          "internalType": "string",
          "name": "name",
          "type": "string"
        },
        {
          "internalType": "string",
          "name": "_symbol",
          "type": "string"
        },
        {
          "internalType": "uint8",
          "name": "_decimals",
          "type": "uint8"
        },
        {
          "internalType": "uint8",
          "name": "_totalSupply",
          "type": "uint8"
        }
      ],
      "stateMutability": "nonpayable",
      "type": "constructor"
    },
    {
      "anonymous": false,
      "inputs": [
        {
          "indexed": false,
          "internalType": "address",
          "name": "_owner",
          "type": "address"
        },
        {
          "indexed": false,
          "internalType": "address",
          "name": "_spender",
          "type": "address"
        },
        {
          "indexed": false,
          "internalType": "uint256",
          "name": "_value",
          "type": "uint256"
        }
      ],
      "name": "Approval",
      "type": "event"
    },
    {
      "anonymous": false,
      "inputs": [
        {
          "indexed": false,
          "internalType": "address",
          "name": "from",
          "type": "address"
        },
        {
          "indexed": false,
          "internalType": "address",
          "name": "to",
          "type": "address"
        },
        {
          "indexed": false,
          "internalType": "uint256",
          "name": "value",
          "type": "uint256"
        }
      ],
      "name": "Transfer",
      "type": "event"
    },
    {
      "inputs": [],
      "name": "_decimals",
      "outputs": [
        {
          "internalType": "uint8",
          "name": "",
          "type": "uint8"
        }
      ],
      "stateMutability": "view",
      "type": "function"
    },
    {
      "inputs": [],
      "name": "_name",
      "outputs": [
        {
          "internalType": "string",
          "name": "",
          "type": "string"
        }
      ],
      "stateMutability": "view",
      "type": "function"
    },
    {
      "inputs": [],
      "name": "_symbol",
      "outputs": [
        {
          "internalType": "string",
          "name": "",
          "type": "string"
        }
      ],
      "stateMutability": "view",
      "type": "function"
    },
    {
      "inputs": [],
      "name": "_totalSupply",
      "outputs": [
        {
          "internalType": "uint256",
          "name": "",
          "type": "uint256"
        }
      ],
      "stateMutability": "view",
      "type": "function"
    },
    {
      "inputs": [
        {
          "internalType": "address",
          "name": "_owner",
          "type": "address"
        },
        {
          "internalType": "address",
          "name": "_spender",
          "type": "address"
        }
      ],
      "name": "allowance",
      "outputs": [
        {
          "internalType": "uint256",
          "name": "",
          "type": "uint256"
        }
      ],
      "stateMutability": "view",
      "type": "function"
    },
    {
      "inputs": [
        {
          "internalType": "address",
          "name": "_spender",
          "type": "address"
        },
        {
          "internalType": "uint256",
          "name": "_value",
          "type": "uint256"
        }
      ],
      "name": "approve",
      "outputs": [
        {
          "internalType": "bool",
          "name": "",
          "type": "bool"
        }
      ],
      "stateMutability": "nonpayable",
      "type": "function"
    },
    {
      "inputs": [
        {
          "internalType": "address",
          "name": "_owner",
          "type": "address"
        }
      ],
      "name": "balanceOf",
      "outputs": [
        {
          "internalType": "uint256",
          "name": "",
          "type": "uint256"
        }
      ],
      "stateMutability": "view",
      "type": "function"
    },
    {
      "inputs": [],
      "name": "decimals",
      "outputs": [
        {
          "internalType": "uint8",
          "name": "",
          "type": "uint8"
        }
      ],
      "stateMutability": "view",
      "type": "function"
    },
    {
      "inputs": [],
      "name": "name",
      "outputs": [
        {
          "internalType": "string",
          "name": "",
          "type": "string"
        }
      ],
      "stateMutability": "view",
      "type": "function"
    },
    {
      "inputs": [],
      "name": "symbol",
      "outputs": [
        {
          "internalType": "string",
          "name": "",
          "type": "string"
        }
      ],
      "stateMutability": "view",
      "type": "function"
    },
    {
      "inputs": [],
      "name": "totalSupply",
      "outputs": [
        {
          "internalType": "uint256",
          "name": "",
          "type": "uint256"
        }
      ],
      "stateMutability": "view",
      "type": "function"
    },
    {
      "inputs": [
        {
          "internalType": "address",
          "name": "_to",
          "type": "address"
        },
        {
          "internalType": "uint256",
          "name": "_value",
          "type": "uint256"
        }
      ],
      "name": "transfer",
      "outputs": [
        {
          "internalType": "bool",
          "name": "",
          "type": "bool"
        }
      ],
      "stateMutability": "nonpayable",
      "type": "function"
    },
    {
      "inputs": [
        {
          "internalType": "address",
          "name": "_from",
          "type": "address"
        },
        {
          "internalType": "address",
          "name": "_to",
          "type": "address"
        },
        {
          "internalType": "uint256",
          "name": "_value",
          "type": "uint256"
        }
      ],
      "name": "transferFrom",
      "outputs": [
        {
          "internalType": "bool",
          "name": "",
          "type": "bool"
        }
      ],
      "stateMutability": "nonpayable",
      "type": "function"
    }
  ],
  "bytecode": {
    "object": "0x60806040523480156200001157600080fd5b5060405162000b2838038062000b2883398101604081905262000034916200013f565b60006200004285826200025d565b5033600090815260046020526040902060ff90911690555062000329915050565b634e487b7160e01b600052604160045260246000fd5b600082601f8301126200008b57600080fd5b81516001600160401b0380821115620000a857620000a862000063565b604051601f8301601f19908116603f01168101908282118183101715620000d357620000d362000063565b81604052838152602092508683858801011115620000f057600080fd5b600091505b83821015620001145785820183015181830184015290820190620000f5565b600093810190920192909252949350505050565b805160ff811681146200013a57600080fd5b919050565b600080600080608085870312156200015657600080fd5b84516001600160401b03808211156200016e57600080fd5b6200017c8883890162000079565b955060208701519150808211156200019357600080fd5b50620001a28782880162000079565b935050620001b36040860162000128565b9150620001c36060860162000128565b905092959194509250565b600181811c90821680620001e357607f821691505b6020821081036200020457634e487b7160e01b600052602260045260246000fd5b50919050565b601f8211156200025857600081815260208120601f850160051c81016020861015620002335750805b601f850160051c820191505b8181101562000254578281556001016200023f565b5050505b505050565b81516001600160401b0381111562000279576200027962000063565b62000291816200028a8454620001ce565b846200020a565b602080601f831160018114620002c95760008415620002b05750858301515b600019600386901b1c1916600185901b17855562000254565b600085815260208120601f198616915b82811015620002fa57888601518255948401946001909101908401620002d9565b5085821015620003195787850151600019600388901b60f8161c191681555b5050505050600190811b01905550565b6107ef80620003396000396000f3fe608060405234801561001057600080fd5b50600436106100cf5760003560e01c80633eaaf86b1161008c578063a9059cbb11610066578063a9059cbb1461019a578063b09f1266146101ad578063d28d8852146101b5578063dd62ed3e146101bd57600080fd5b80633eaaf86b1461016057806370a082311461016957806395d89b411461019257600080fd5b806306fdde03146100d4578063095ea7b3146100f257806318160ddd1461011557806323b872dd14610127578063313ce5671461013a57806332424aa314610153575b600080fd5b6100dc6101f6565b6040516100e9919061061e565b60405180910390f35b610105610100366004610688565b610288565b60405190151581526020016100e9565b6003545b6040519081526020016100e9565b6101056101353660046106b2565b610353565b60025460ff165b60405160ff90911681526020016100e9565b6002546101419060ff1681565b61011960035481565b6101196101773660046106ee565b6001600160a01b031660009081526004602052604090205490565b6100dc610489565b6101056101a8366004610688565b610498565b6100dc610583565b6100dc610611565b6101196101cb366004610710565b6001600160a01b03918216600090815260056020908152604080832093909416825291909152205490565b60606000805461020590610743565b80601f016020809104026020016040519081016040528092919081815260200182805461023190610743565b801561027e5780601f106102535761010080835404028352916020019161027e565b820191906000526020600020905b81548152906001019060200180831161026157829003601f168201915b5050505050905090565b336000908152600460205260408120548211156102e15760405162461bcd60e51b81526020600482015260126024820152714e6f7420656e6f7567682062616c616e636560701b60448201526064015b60405180910390fd5b3360008181526005602090815260408083206001600160a01b0388168085529083529281902086905580519384529083019190915281018390527f8c5be1e5ebec7d5bd14f71427d1e84f3dd0314c0f7b2291e5b200ac8c7c3b925906060015b60405180910390a15060015b92915050565b6001600160a01b0383166000908152600460205260408120548211156103bb5760405162461bcd60e51b815260206004820152601d60248201527f4e6f7420656e6f7567682062616c616e63652066726f6d205f66726f6d00000060448201526064016102d8565b6001600160a01b03841660009081526005602090815260408083203384529091529020548211156104255760405162461bcd60e51b81526020600482015260146024820152734e6f7420656e6f75676820616c6c6f77616e636560601b60448201526064016102d8565b6001600160a01b0384166000908152600460205260408120805484929061044d908490610793565b90915550506001600160a01b0383166000908152600460205260408120805484929061047a9084906107a6565b90915550600195945050505050565b60606001805461020590610743565b336000908152600460205260408120548211156104ec5760405162461bcd60e51b81526020600482015260126024820152714e6f7420656e6f7567682062616c616e636560701b60448201526064016102d8565b336000908152600460205260408120805484929061050b908490610793565b90915550506001600160a01b038316600090815260046020526040812080548492906105389084906107a6565b9091555050604080513381526001600160a01b03851660208201529081018390527fddf252ad1be2c89b69c2b068fc378daa952ba7f163c4a11628f55a4df523b3ef90606001610341565b6001805461059090610743565b80601f01602080910402602001604051908101604052809291908181526020018280546105bc90610743565b80156106095780601f106105de57610100808354040283529160200191610609565b820191906000526020600020905b8154815290600101906020018083116105ec57829003601f168201915b505050505081565b6000805461059090610743565b600060208083528351808285015260005b8181101561064b5785810183015185820160400152820161062f565b506000604082860101526040601f19601f8301168501019250505092915050565b80356001600160a01b038116811461068357600080fd5b919050565b6000806040838503121561069b57600080fd5b6106a48361066c565b946020939093013593505050565b6000806000606084860312156106c757600080fd5b6106d08461066c565b92506106de6020850161066c565b9150604084013590509250925092565b60006020828403121561070057600080fd5b6107098261066c565b9392505050565b6000806040838503121561072357600080fd5b61072c8361066c565b915061073a6020840161066c565b90509250929050565b600181811c9082168061075757607f821691505b60208210810361077757634e487b7160e01b600052602260045260246000fd5b50919050565b634e487b7160e01b600052601160045260246000fd5b8181038181111561034d5761034d61077d565b8082018082111561034d5761034d61077d56fea2646970667358221220ddb985bfe3a986d04b30533d00cab6aa0aea68624f5f85d7e8efb53e14f528af64736f6c63430008110033",
    "linkReferences": {}
  },
  "methodIdentifiers": {
    "_decimals()": "32424aa3",
    "_name()": "d28d8852",
    "_symbol()": "b09f1266",
    "_totalSupply()": "3eaaf86b",
    "allowance(address,address)": "dd62ed3e",
    "approve(address,uint256)": "095ea7b3",
    "balanceOf(address)": "70a08231",
    "decimals()": "313ce567",
    "name()": "06fdde03",
    "symbol()": "95d89b41",
    "totalSupply()": "18160ddd",
    "transfer(address,uint256)": "a9059cbb",
    "transferFrom(address,address,uint256)": "23b872dd"
  },
  "id": 0
}